{
  "contractName": "BuyControler",
  "abi": [
    {
      "constant": true,
      "inputs": [],
      "name": "totalPayments",
      "outputs": [
        {
          "name": "",
          "type": "uint256"
        }
      ],
      "payable": false,
      "stateMutability": "view",
      "type": "function"
    },
    {
      "constant": false,
      "inputs": [],
      "name": "withdrawPayments",
      "outputs": [],
      "payable": false,
      "stateMutability": "nonpayable",
      "type": "function"
    },
    {
      "constant": true,
      "inputs": [],
      "name": "owner",
      "outputs": [
        {
          "name": "",
          "type": "address"
        }
      ],
      "payable": false,
      "stateMutability": "view",
      "type": "function"
    },
    {
      "constant": true,
      "inputs": [
        {
          "name": "",
          "type": "address"
        }
      ],
      "name": "payments",
      "outputs": [
        {
          "name": "",
          "type": "uint256"
        }
      ],
      "payable": false,
      "stateMutability": "view",
      "type": "function"
    },
    {
      "constant": false,
      "inputs": [
        {
          "name": "newOwner",
          "type": "address"
        }
      ],
      "name": "transferOwnership",
      "outputs": [],
      "payable": false,
      "stateMutability": "nonpayable",
      "type": "function"
    },
    {
      "inputs": [
        {
          "name": "NpAddr",
          "type": "address"
        }
      ],
      "payable": false,
      "stateMutability": "nonpayable",
      "type": "constructor"
    },
    {
      "anonymous": false,
      "inputs": [
        {
          "indexed": true,
          "name": "previousOwner",
          "type": "address"
        },
        {
          "indexed": true,
          "name": "newOwner",
          "type": "address"
        }
      ],
      "name": "OwnershipTransferred",
      "type": "event"
    },
    {
      "constant": true,
      "inputs": [
        {
          "name": "x",
          "type": "uint256"
        },
        {
          "name": "y",
          "type": "uint256"
        },
        {
          "name": "color",
          "type": "uint256"
        }
      ],
      "name": "getPointPrice",
      "outputs": [
        {
          "name": "",
          "type": "uint256"
        },
        {
          "name": "",
          "type": "uint256"
        }
      ],
      "payable": false,
      "stateMutability": "view",
      "type": "function"
    },
    {
      "constant": false,
      "inputs": [
        {
          "name": "x",
          "type": "uint256"
        },
        {
          "name": "y",
          "type": "uint256"
        },
        {
          "name": "color",
          "type": "uint256"
        }
      ],
      "name": "buyPoint",
      "outputs": [
        {
          "name": "",
          "type": "uint256"
        }
      ],
      "payable": true,
      "stateMutability": "payable",
      "type": "function"
    }
  ],
  "bytecode": "0x606060405265b5e620f48000600455341561001957600080fd5b604051602080610ef883398101604052808051906020019091905050336000806101000a81548173ffffffffffffffffffffffffffffffffffffffff021916908373ffffffffffffffffffffffffffffffffffffffff16021790555080600360006101000a81548173ffffffffffffffffffffffffffffffffffffffff021916908373ffffffffffffffffffffffffffffffffffffffff16021790555050610e32806100c66000396000f300606060405260043610610082576000357c0100000000000000000000000000000000000000000000000000000000900463ffffffff1680625b4487146100875780636103d70b146100b05780637e9210cf146100c55780638da5cb5b14610115578063e2982c211461016a578063ecbb9dba146101b7578063f2fde38b146101f5575b600080fd5b341561009257600080fd5b61009a61022e565b6040518082815260200191505060405180910390f35b34156100bb57600080fd5b6100c3610234565b005b34156100d057600080fd5b6100f86004808035906020019091908035906020019091908035906020019091905050610356565b604051808381526020018281526020019250505060405180910390f35b341561012057600080fd5b610128610500565b604051808273ffffffffffffffffffffffffffffffffffffffff1673ffffffffffffffffffffffffffffffffffffffff16815260200191505060405180910390f35b341561017557600080fd5b6101a1600480803573ffffffffffffffffffffffffffffffffffffffff16906020019091905050610525565b6040518082815260200191505060405180910390f35b6101df600480803590602001909190803590602001909190803590602001909190505061053d565b6040518082815260200191505060405180910390f35b341561020057600080fd5b61022c600480803573ffffffffffffffffffffffffffffffffffffffff169060200190919050506108e4565b005b60025481565b600080339150600160008373ffffffffffffffffffffffffffffffffffffffff1673ffffffffffffffffffffffffffffffffffffffff1681526020019081526020016000205490506000811415151561028c57600080fd5b803073ffffffffffffffffffffffffffffffffffffffff1631101515156102b257600080fd5b6102c781600254610a3990919063ffffffff16565b6002819055506000600160008473ffffffffffffffffffffffffffffffffffffffff1673ffffffffffffffffffffffffffffffffffffffff168152602001908152602001600020819055508173ffffffffffffffffffffffffffffffffffffffff166108fc829081150290604051600060405180830381858888f19350505050151561035257600080fd5b5050565b600080600080600080600360009054906101000a900473ffffffffffffffffffffffffffffffffffffffff1673ffffffffffffffffffffffffffffffffffffffff1663358177736040518163ffffffff167c01000000000000000000000000000000000000000000000000000000000281526004018080602001828103825260038152602001807f4d61700000000000000000000000000000000000000000000000000000000000815250602001915050602060405180830381600087803b151561042057600080fd5b5af1151561042d57600080fd5b5050506040518051905093508373ffffffffffffffffffffffffffffffffffffffff16638bcb6dd88a8a6040518363ffffffff167c01000000000000000000000000000000000000000000000000000000000281526004018083815260200182815260200192505050602060405180830381600087803b15156104af57600080fd5b5af115156104bc57600080fd5b5050506040518051905092506104de6104d6846002610a52565b600454610a52565b91506104ec82600454610a8a565b905080829550955050505050935093915050565b6000809054906101000a900473ffffffffffffffffffffffffffffffffffffffff1681565b60016020528060005260406000206000915090505481565b6000806000808686866000806000600360009054906101000a900473ffffffffffffffffffffffffffffffffffffffff1673ffffffffffffffffffffffffffffffffffffffff16634e0ec1756040518163ffffffff167c01000000000000000000000000000000000000000000000000000000000281526004018080602001828103825260058152602001807f7769647468000000000000000000000000000000000000000000000000000000815250602001915050602060405180830381600087803b151561060c57600080fd5b5af1151561061957600080fd5b505050604051805190509250600360009054906101000a900473ffffffffffffffffffffffffffffffffffffffff1673ffffffffffffffffffffffffffffffffffffffff16634e0ec1756040518163ffffffff167c01000000000000000000000000000000000000000000000000000000000281526004018080602001828103825260068152602001807f6865696768740000000000000000000000000000000000000000000000000000815250602001915050602060405180830381600087803b15156106e657600080fd5b5af115156106f357600080fd5b505050604051805190509150600360009054906101000a900473ffffffffffffffffffffffffffffffffffffffff1673ffffffffffffffffffffffffffffffffffffffff16634e0ec1756040518163ffffffff167c01000000000000000000000000000000000000000000000000000000000281526004018080602001828103825260098152602001807f636f6c6f72547970650000000000000000000000000000000000000000000000815250602001915050602060405180830381600087803b15156107c057600080fd5b5af115156107cd57600080fd5b50505060405180519050905082861080156107e757508185105b80156107f35750600084115b80156107fe57508084105b151561080957600080fd5b3073ffffffffffffffffffffffffffffffffffffffff16637e9210cf8e8e8e6040518463ffffffff167c01000000000000000000000000000000000000000000000000000000000281526004018084815260200183815260200182815260200193505050506040805180830381600087803b151561088657600080fd5b5af1151561089357600080fd5b50505060405180519060200180519050809950819a5050508834101515156108ba57600080fd5b6108c58d8d8d610aa6565b96506108d18789610ce2565b8899505050505050505050509392505050565b6000809054906101000a900473ffffffffffffffffffffffffffffffffffffffff1673ffffffffffffffffffffffffffffffffffffffff163373ffffffffffffffffffffffffffffffffffffffff1614151561093f57600080fd5b600073ffffffffffffffffffffffffffffffffffffffff168173ffffffffffffffffffffffffffffffffffffffff161415151561097b57600080fd5b8073ffffffffffffffffffffffffffffffffffffffff166000809054906101000a900473ffffffffffffffffffffffffffffffffffffffff1673ffffffffffffffffffffffffffffffffffffffff167f8be0079c531659141344cd1fd0a4f28419497f9722a3daafe3b4186f6b6457e060405160405180910390a3806000806101000a81548173ffffffffffffffffffffffffffffffffffffffff021916908373ffffffffffffffffffffffffffffffffffffffff16021790555050565b6000828211151515610a4757fe5b818303905092915050565b600080831415610a655760009050610a84565b8183029050818382811515610a7657fe5b04141515610a8057fe5b8090505b92915050565b60008183019050828110151515610a9d57fe5b80905092915050565b6000806000600360009054906101000a900473ffffffffffffffffffffffffffffffffffffffff1673ffffffffffffffffffffffffffffffffffffffff1663358177736040518163ffffffff167c01000000000000000000000000000000000000000000000000000000000281526004018080602001828103825260038152602001807f4d61700000000000000000000000000000000000000000000000000000000000815250602001915050602060405180830381600087803b1515610b6c57600080fd5b5af11515610b7957600080fd5b5050506040518051905091503390508173ffffffffffffffffffffffffffffffffffffffff166327ff09b2878787856040518563ffffffff167c0100000000000000000000000000000000000000000000000000000000028152600401808581526020018481526020018381526020018273ffffffffffffffffffffffffffffffffffffffff1673ffffffffffffffffffffffffffffffffffffffff168152602001945050505050600060405180830381600087803b1515610c3a57600080fd5b5af11515610c4757600080fd5b5050508173ffffffffffffffffffffffffffffffffffffffff1663e08d580e87876040518363ffffffff167c01000000000000000000000000000000000000000000000000000000000281526004018083815260200182815260200192505050602060405180830381600087803b1515610cc057600080fd5b5af11515610ccd57600080fd5b50505060405180519050925050509392505050565b600073ffffffffffffffffffffffffffffffffffffffff168273ffffffffffffffffffffffffffffffffffffffff16141580610d1e5750600081145b15610d4e57610d2d8282610d52565b610d4d73a020edb9f8abcc883aa8c8c1171455d6e0e95d42600454610d52565b5b5050565b610da481600160008573ffffffffffffffffffffffffffffffffffffffff1673ffffffffffffffffffffffffffffffffffffffff16815260200190815260200160002054610a8a90919063ffffffff16565b600160008473ffffffffffffffffffffffffffffffffffffffff1673ffffffffffffffffffffffffffffffffffffffff16815260200190815260200160002081905550610dfc81600254610a8a90919063ffffffff16565b60028190555050505600a165627a7a72305820f78e95dfe38a6e18ed6e38ed5500f5894ecbda0bad14a0c58c649da9fd8794430029",
  "source": "pragma solidity ^0.4.21;\n\nimport 'zeppelin-solidity/contracts/ownership/Ownable.sol';\nimport 'zeppelin-solidity/contracts/math/SafeMath.sol';\nimport 'zeppelin-solidity/contracts/payment/PullPayment.sol';\nimport './NamespaceProxy.sol';\nimport './Map.sol';\n\ncontract BuyControler is Ownable, PullPayment {\n\tusing SafeMath for uint256;\n\n\tNamespaceProxy npContract;\n\t//200 Szabo\n\tuint basePrice = 200000000000000;\n\n\tfunction BuyControler(address NpAddr) public {\n\t\tnpContract = NamespaceProxy(NpAddr);\n\t}\n\n\tfunction getPointPrice(uint x, uint y, uint color) public view returns (uint, uint) {\n\t\tMap map = Map(address(npContract.getContract(\"Map\")));\n\t\tuint cnt = map.cntMap(x, y);\n\t\t//price= cnt*2*basePrice+basePrice\n\t\tuint payLast = SafeMath.mul(SafeMath.mul(cnt, 2), basePrice);\n\t\tuint price = SafeMath.add(payLast, basePrice);\n\t\treturn (price, payLast);\n\t}\n\n\n\n\tmodifier isAllow(uint x, uint y, uint color) {\n\t\tuint width = npContract.getConstantUint(\"width\");\n\t\tuint height = npContract.getConstantUint(\"height\");\n\t\tuint colorType = npContract.getConstantUint(\"colorType\");\n\t\trequire(x < width && y < height && color > 0 && color < colorType);\n\t\t_;\n\t}\n\n\tfunction paintPoint(uint x, uint y, uint color) internal returns (address) {\n\t\tMap map = Map(address(npContract.getContract(\"Map\")));\n\t\taddress buyer = msg.sender;\n\t\tmap.setMap(x, y, color, buyer);\n\t\treturn map.ownerMap(x, y);\n\t}\n\n\n\tfunction sendBuyPayment(address lastOwner, uint payLast) internal {\n\t\tif (lastOwner != address(0) || payLast == 0) {\n\t\t\tasyncSend(lastOwner, payLast);\n\t\t\tasyncSend(address(0xA020eDb9f8aBCc883aa8C8C1171455D6E0e95d42), basePrice);\n\t\t}\n\t}\n\n\tfunction buyPoint(uint x, uint y, uint color) public payable isAllow(x, y, color) returns (uint) {\n\t\tuint price;\n\t\tuint payLast;\n\t\t(price, payLast) = this.getPointPrice(x, y, color);\n\t\trequire(msg.value >= price);\n\t\t//set\n\t\taddress lastOwner = paintPoint(x, y, color);\n\t\t//sendPay\n\n\t\tsendBuyPayment(lastOwner, payLast);\n\n\t\treturn price;\n\t}\n}\n",
  "sourcePath": "/Users/cyh/WebstormProjects/eth-solidity/canvas/contracts/BuyControler.sol",
  "compiler": {
    "name": "solc",
    "version": "0.4.21+commit.dfe3193c.Emscripten.clang"
  },
  "schemaVersion": "2.0.0",
  "updatedAt": "2018-05-02T18:38:59.987Z"
}