{
  "contractName": "BuyControler",
  "abi": [
    {
      "constant": true,
      "inputs": [],
      "name": "totalPayments",
      "outputs": [
        {
          "name": "",
          "type": "uint256"
        }
      ],
      "payable": false,
      "stateMutability": "view",
      "type": "function"
    },
    {
      "constant": false,
      "inputs": [],
      "name": "withdrawPayments",
      "outputs": [],
      "payable": false,
      "stateMutability": "nonpayable",
      "type": "function"
    },
    {
      "constant": true,
      "inputs": [],
      "name": "owner",
      "outputs": [
        {
          "name": "",
          "type": "address"
        }
      ],
      "payable": false,
      "stateMutability": "view",
      "type": "function"
    },
    {
      "constant": true,
      "inputs": [
        {
          "name": "",
          "type": "address"
        }
      ],
      "name": "payments",
      "outputs": [
        {
          "name": "",
          "type": "uint256"
        }
      ],
      "payable": false,
      "stateMutability": "view",
      "type": "function"
    },
    {
      "constant": false,
      "inputs": [
        {
          "name": "newOwner",
          "type": "address"
        }
      ],
      "name": "transferOwnership",
      "outputs": [],
      "payable": false,
      "stateMutability": "nonpayable",
      "type": "function"
    },
    {
      "inputs": [
        {
          "name": "NpAddr",
          "type": "address"
        }
      ],
      "payable": false,
      "stateMutability": "nonpayable",
      "type": "constructor"
    },
    {
      "anonymous": false,
      "inputs": [
        {
          "indexed": true,
          "name": "x",
          "type": "uint256"
        },
        {
          "indexed": true,
          "name": "y",
          "type": "uint256"
        },
        {
          "indexed": false,
          "name": "color",
          "type": "uint8"
        }
      ],
      "name": "BuyPointSucceed",
      "type": "event"
    },
    {
      "anonymous": false,
      "inputs": [
        {
          "indexed": true,
          "name": "previousOwner",
          "type": "address"
        },
        {
          "indexed": true,
          "name": "newOwner",
          "type": "address"
        }
      ],
      "name": "OwnershipTransferred",
      "type": "event"
    },
    {
      "constant": true,
      "inputs": [
        {
          "name": "x",
          "type": "uint256"
        },
        {
          "name": "y",
          "type": "uint256"
        }
      ],
      "name": "getPointPrice",
      "outputs": [
        {
          "name": "price",
          "type": "uint256"
        },
        {
          "name": "payLast",
          "type": "uint256"
        }
      ],
      "payable": false,
      "stateMutability": "view",
      "type": "function"
    },
    {
      "constant": false,
      "inputs": [
        {
          "name": "x",
          "type": "uint256"
        },
        {
          "name": "y",
          "type": "uint256"
        },
        {
          "name": "color",
          "type": "uint8"
        }
      ],
      "name": "buyPoint",
      "outputs": [],
      "payable": true,
      "stateMutability": "payable",
      "type": "function"
    }
  ],
  "bytecode": "0x6060604052341561000f57600080fd5b604051602080610c6d83398101604052808051906020019091905050336000806101000a81548173ffffffffffffffffffffffffffffffffffffffff021916908373ffffffffffffffffffffffffffffffffffffffff16021790555080600360006101000a81548173ffffffffffffffffffffffffffffffffffffffff021916908373ffffffffffffffffffffffffffffffffffffffff16021790555050610bb1806100bc6000396000f300606060405260043610610082576000357c0100000000000000000000000000000000000000000000000000000000900463ffffffff1680625b4487146100875780636103d70b146100b05780638da5cb5b146100c557806390a2a3d11461011a578063b4b3ef1a14610161578063e2982c211461018e578063f2fde38b146101db575b600080fd5b341561009257600080fd5b61009a610214565b6040518082815260200191505060405180910390f35b34156100bb57600080fd5b6100c361021a565b005b34156100d057600080fd5b6100d861033c565b604051808273ffffffffffffffffffffffffffffffffffffffff1673ffffffffffffffffffffffffffffffffffffffff16815260200191505060405180910390f35b341561012557600080fd5b6101446004808035906020019091908035906020019091905050610361565b604051808381526020018281526020019250505060405180910390f35b61018c600480803590602001909190803590602001909190803560ff16906020019091905050610502565b005b341561019957600080fd5b6101c5600480803573ffffffffffffffffffffffffffffffffffffffff16906020019091905050610647565b6040518082815260200191505060405180910390f35b34156101e657600080fd5b610212600480803573ffffffffffffffffffffffffffffffffffffffff1690602001909190505061065f565b005b60025481565b600080339150600160008373ffffffffffffffffffffffffffffffffffffffff1673ffffffffffffffffffffffffffffffffffffffff1681526020019081526020016000205490506000811415151561027257600080fd5b803073ffffffffffffffffffffffffffffffffffffffff16311015151561029857600080fd5b6102ad816002546107b490919063ffffffff16565b6002819055506000600160008473ffffffffffffffffffffffffffffffffffffffff1673ffffffffffffffffffffffffffffffffffffffff168152602001908152602001600020819055508173ffffffffffffffffffffffffffffffffffffffff166108fc829081150290604051600060405180830381858888f19350505050151561033857600080fd5b5050565b6000809054906101000a900473ffffffffffffffffffffffffffffffffffffffff1681565b6000806000600360009054906101000a900473ffffffffffffffffffffffffffffffffffffffff1673ffffffffffffffffffffffffffffffffffffffff1663358177736040518163ffffffff167c01000000000000000000000000000000000000000000000000000000000281526004018080602001828103825260038152602001807f4d61700000000000000000000000000000000000000000000000000000000000815250602001915050602060405180830381600087803b151561042757600080fd5b5af1151561043457600080fd5b5050506040518051905090506104e66104da8273ffffffffffffffffffffffffffffffffffffffff16638bcb6dd888886040518363ffffffff167c01000000000000000000000000000000000000000000000000000000000281526004018083815260200182815260200192505050602060405180830381600087803b15156104bc57600080fd5b5af115156104c957600080fd5b5050506040518051905060026107cd565b65b5e620f480006107cd565b91506104f88265b5e620f48000610805565b9250509250929050565b6000808484846064831080156105185750606482105b8015610527575060008160ff16115b8015610536575060ff8160ff16105b151561054157600080fd5b3073ffffffffffffffffffffffffffffffffffffffff166390a2a3d189896040518363ffffffff167c010000000000000000000000000000000000000000000000000000000002815260040180838152602001828152602001925050506040805180830381600087803b15156105b657600080fd5b5af115156105c357600080fd5b5050506040518051906020018051905080955081965050508434101515156105ea57600080fd5b6105fe6105f8898989610821565b85610a5d565b86887ff6f837a94cb8976edc4d0389ea1e8ec5dda90bd639a5dfd7fd0b35bc55f81e9d88604051808260ff1660ff16815260200191505060405180910390a35050505050505050565b60016020528060005260406000206000915090505481565b6000809054906101000a900473ffffffffffffffffffffffffffffffffffffffff1673ffffffffffffffffffffffffffffffffffffffff163373ffffffffffffffffffffffffffffffffffffffff161415156106ba57600080fd5b600073ffffffffffffffffffffffffffffffffffffffff168173ffffffffffffffffffffffffffffffffffffffff16141515156106f657600080fd5b8073ffffffffffffffffffffffffffffffffffffffff166000809054906101000a900473ffffffffffffffffffffffffffffffffffffffff1673ffffffffffffffffffffffffffffffffffffffff167f8be0079c531659141344cd1fd0a4f28419497f9722a3daafe3b4186f6b6457e060405160405180910390a3806000806101000a81548173ffffffffffffffffffffffffffffffffffffffff021916908373ffffffffffffffffffffffffffffffffffffffff16021790555050565b60008282111515156107c257fe5b818303905092915050565b6000808314156107e057600090506107ff565b81830290508183828115156107f157fe5b041415156107fb57fe5b8090505b92915050565b6000818301905082811015151561081857fe5b80905092915050565b600080600360009054906101000a900473ffffffffffffffffffffffffffffffffffffffff1673ffffffffffffffffffffffffffffffffffffffff1663358177736040518163ffffffff167c01000000000000000000000000000000000000000000000000000000000281526004018080602001828103825260038152602001807f4d61700000000000000000000000000000000000000000000000000000000000815250602001915050602060405180830381600087803b15156108e557600080fd5b5af115156108f257600080fd5b5050506040518051905090508073ffffffffffffffffffffffffffffffffffffffff1663e08d580e86866040518363ffffffff167c01000000000000000000000000000000000000000000000000000000000281526004018083815260200182815260200192505050602060405180830381600087803b151561097457600080fd5b5af1151561098157600080fd5b5050506040518051905091508073ffffffffffffffffffffffffffffffffffffffff16639de85df1868686336040518563ffffffff167c0100000000000000000000000000000000000000000000000000000000028152600401808581526020018481526020018360ff1660ff1681526020018273ffffffffffffffffffffffffffffffffffffffff1673ffffffffffffffffffffffffffffffffffffffff168152602001945050505050600060405180830381600087803b1515610a4557600080fd5b5af11515610a5257600080fd5b505050509392505050565b600073ffffffffffffffffffffffffffffffffffffffff168273ffffffffffffffffffffffffffffffffffffffff16141580610a995750600081145b15610acd57610aa88282610ad1565b610acc73a020edb9f8abcc883aa8c8c1171455d6e0e95d4265b5e620f48000610ad1565b5b5050565b610b2381600160008573ffffffffffffffffffffffffffffffffffffffff1673ffffffffffffffffffffffffffffffffffffffff1681526020019081526020016000205461080590919063ffffffff16565b600160008473ffffffffffffffffffffffffffffffffffffffff1673ffffffffffffffffffffffffffffffffffffffff16815260200190815260200160002081905550610b7b8160025461080590919063ffffffff16565b60028190555050505600a165627a7a723058203ca0078134756993c5f2872b8024fd7f9919998e8cdf3176ca14473b6d683de10029",
  "source": "pragma solidity ^0.4.21;\n\nimport 'zeppelin-solidity/contracts/ownership/Ownable.sol';\nimport 'zeppelin-solidity/contracts/math/SafeMath.sol';\nimport 'zeppelin-solidity/contracts/payment/PullPayment.sol';\nimport './NamespaceProxy.sol';\nimport './Map.sol';\n\ncontract BuyControler is Ownable, PullPayment {\n\tusing SafeMath for uint256;\n\n\tNamespaceProxy npContract;\n\t//200 Szabo\n\tuint constant basePrice = 200000000000000;\n\n\tevent BuyPointSucceed(uint indexed x, uint indexed y, uint8 color);\n\n\tfunction BuyControler(address NpAddr) public {\n\t\tnpContract = NamespaceProxy(NpAddr);\n\t}\n\n\tfunction getPointPrice(uint x, uint y) public view returns (uint price, uint payLast) {\n\t\tMap map = Map(address(npContract.getContract(\"Map\")));\n\t\t//\t\tuint cnt = map.cntMap(x, y);\n\t\t//price= cnt*2*basePrice+basePrice\n\t\tpayLast = SafeMath.mul(SafeMath.mul(map.cntMap(x, y), 2), basePrice);\n\t\tprice = SafeMath.add(payLast, basePrice);\n\t}\n\n\n\n\tmodifier isAllow(uint x, uint y, uint8 color) {\n\t\trequire(x < 100 && y < 100 && color > 0 && color < 255);\n\t\t_;\n\t}\n\n\tfunction paintPoint(uint x, uint y, uint8 color) internal returns (address last) {\n\t\tMap map = Map(address(npContract.getContract(\"Map\")));\n\t\tlast = map.ownerMap(x, y);\n\t\tmap.setMap(x, y, color, msg.sender);\n\t}\n\n\n\tfunction sendBuyPayment(address lastOwner, uint payLast) internal {\n\t\tif (lastOwner != address(0) || payLast == 0) {\n\t\t\tasyncSend(lastOwner, payLast);\n\t\t\tasyncSend(address(0xA020eDb9f8aBCc883aa8C8C1171455D6E0e95d42), basePrice);\n\t\t}\n\t}\n\n\tfunction buyPoint(uint x, uint y, uint8 color) public payable isAllow(x, y, color) {\n\t\tuint price;\n\t\tuint payLast;\n\t\t(price, payLast) = this.getPointPrice(x, y);\n\t\trequire(msg.value >= price);\n\t\t//set\n\t\t//\t\taddress lastOwner = paintPoint(x, y, color);\n\t\t//sendPay\n\n\t\tsendBuyPayment(paintPoint(x, y, color), payLast);\n\t\temit BuyPointSucceed(x, y, color);\n\t}\n}\n",
  "sourcePath": "/Users/cyh/WebstormProjects/eth-solidity/canvas/contracts/BuyControler.sol",
  "compiler": {
    "name": "solc",
    "version": "0.4.21+commit.dfe3193c.Emscripten.clang"
  },
  "schemaVersion": "2.0.0",
  "updatedAt": "2018-05-04T04:49:48.953Z"
}