{
  "contractName": "Map",
  "abi": [
    {
      "constant": true,
      "inputs": [
        {
          "name": "",
          "type": "uint256"
        },
        {
          "name": "",
          "type": "uint256"
        }
      ],
      "name": "paintMap",
      "outputs": [
        {
          "name": "",
          "type": "uint256"
        }
      ],
      "payable": false,
      "stateMutability": "view",
      "type": "function"
    },
    {
      "constant": true,
      "inputs": [
        {
          "name": "",
          "type": "uint256"
        },
        {
          "name": "",
          "type": "uint256"
        }
      ],
      "name": "cntMap",
      "outputs": [
        {
          "name": "",
          "type": "uint256"
        }
      ],
      "payable": false,
      "stateMutability": "view",
      "type": "function"
    },
    {
      "constant": true,
      "inputs": [],
      "name": "owner",
      "outputs": [
        {
          "name": "",
          "type": "address"
        }
      ],
      "payable": false,
      "stateMutability": "view",
      "type": "function"
    },
    {
      "constant": true,
      "inputs": [
        {
          "name": "",
          "type": "uint256"
        },
        {
          "name": "",
          "type": "uint256"
        }
      ],
      "name": "ownerMap",
      "outputs": [
        {
          "name": "",
          "type": "address"
        }
      ],
      "payable": false,
      "stateMutability": "view",
      "type": "function"
    },
    {
      "constant": false,
      "inputs": [
        {
          "name": "newOwner",
          "type": "address"
        }
      ],
      "name": "transferOwnership",
      "outputs": [],
      "payable": false,
      "stateMutability": "nonpayable",
      "type": "function"
    },
    {
      "inputs": [
        {
          "name": "NpAddr",
          "type": "address"
        }
      ],
      "payable": false,
      "stateMutability": "nonpayable",
      "type": "constructor"
    },
    {
      "anonymous": false,
      "inputs": [
        {
          "indexed": true,
          "name": "previousOwner",
          "type": "address"
        },
        {
          "indexed": true,
          "name": "newOwner",
          "type": "address"
        }
      ],
      "name": "OwnershipTransferred",
      "type": "event"
    },
    {
      "constant": false,
      "inputs": [
        {
          "name": "x",
          "type": "uint256"
        },
        {
          "name": "y",
          "type": "uint256"
        },
        {
          "name": "color",
          "type": "uint256"
        },
        {
          "name": "buyer",
          "type": "address"
        }
      ],
      "name": "setMap",
      "outputs": [],
      "payable": false,
      "stateMutability": "nonpayable",
      "type": "function"
    }
  ],
  "bytecode": "0x6060604052341561000f57600080fd5b6040516020806107ab83398101604052808051906020019091905050336000806101000a81548173ffffffffffffffffffffffffffffffffffffffff021916908373ffffffffffffffffffffffffffffffffffffffff16021790555080600160006101000a81548173ffffffffffffffffffffffffffffffffffffffff021916908373ffffffffffffffffffffffffffffffffffffffff160217905550506106ef806100bc6000396000f300606060405260043610610078576000357c0100000000000000000000000000000000000000000000000000000000900463ffffffff16806327ff09b21461007d578063744f3bcd146100d15780638bcb6dd8146101115780638da5cb5b14610151578063e08d580e146101a6578063f2fde38b14610212575b600080fd5b341561008857600080fd5b6100cf600480803590602001909190803590602001909190803590602001909190803573ffffffffffffffffffffffffffffffffffffffff1690602001909190505061024b565b005b34156100dc57600080fd5b6100fb600480803590602001909190803590602001909190505061049b565b6040518082815260200191505060405180910390f35b341561011c57600080fd5b61013b60048080359060200190919080359060200190919050506104ca565b6040518082815260200191505060405180910390f35b341561015c57600080fd5b6101646104fb565b604051808273ffffffffffffffffffffffffffffffffffffffff1673ffffffffffffffffffffffffffffffffffffffff16815260200191505060405180910390f35b34156101b157600080fd5b6101d06004808035906020019091908035906020019091905050610520565b604051808273ffffffffffffffffffffffffffffffffffffffff1673ffffffffffffffffffffffffffffffffffffffff16815260200191505060405180910390f35b341561021d57600080fd5b610249600480803573ffffffffffffffffffffffffffffffffffffffff1690602001909190505061056e565b005b6000809054906101000a900473ffffffffffffffffffffffffffffffffffffffff1673ffffffffffffffffffffffffffffffffffffffff163373ffffffffffffffffffffffffffffffffffffffff1614806103a85750600160009054906101000a900473ffffffffffffffffffffffffffffffffffffffff1673ffffffffffffffffffffffffffffffffffffffff1663358177736040518163ffffffff167c010000000000000000000000000000000000000000000000000000000002815260040180806020018281038252600c8152602001807f427579436f6e74726f6c65720000000000000000000000000000000000000000815250602001915050602060405180830381600087803b151561036257600080fd5b5af1151561036f57600080fd5b5050506040518051905073ffffffffffffffffffffffffffffffffffffffff163373ffffffffffffffffffffffffffffffffffffffff16145b15156103b357600080fd5b816002856103e8811015156103c457fe5b6103e80201846103e8811015156103d757fe5b018190555080620f4242856103e8811015156103ef57fe5b6103e80201846103e88110151561040257fe5b0160006101000a81548173ffffffffffffffffffffffffffffffffffffffff021916908373ffffffffffffffffffffffffffffffffffffffff1602179055506001621e8482856103e88110151561045557fe5b6103e80201846103e88110151561046857fe5b015401621e8482856103e88110151561047d57fe5b6103e80201846103e88110151561049057fe5b018190555050505050565b6002826103e8811015156104ab57fe5b6103e80201816103e8811015156104be57fe5b01600091509150505481565b621e8482826103e8811015156104dc57fe5b6103e80201816103e8811015156104ef57fe5b01600091509150505481565b6000809054906101000a900473ffffffffffffffffffffffffffffffffffffffff1681565b620f4242826103e88110151561053257fe5b6103e80201816103e88110151561054557fe5b016000915091509054906101000a900473ffffffffffffffffffffffffffffffffffffffff1681565b6000809054906101000a900473ffffffffffffffffffffffffffffffffffffffff1673ffffffffffffffffffffffffffffffffffffffff163373ffffffffffffffffffffffffffffffffffffffff161415156105c957600080fd5b600073ffffffffffffffffffffffffffffffffffffffff168173ffffffffffffffffffffffffffffffffffffffff161415151561060557600080fd5b8073ffffffffffffffffffffffffffffffffffffffff166000809054906101000a900473ffffffffffffffffffffffffffffffffffffffff1673ffffffffffffffffffffffffffffffffffffffff167f8be0079c531659141344cd1fd0a4f28419497f9722a3daafe3b4186f6b6457e060405160405180910390a3806000806101000a81548173ffffffffffffffffffffffffffffffffffffffff021916908373ffffffffffffffffffffffffffffffffffffffff160217905550505600a165627a7a72305820d80d59dbb920bf5ea5e37ac65e069442cb4c773b543f963b557cf112c1f2cc390029",
  "source": "pragma solidity ^0.4.21;\n\nimport 'zeppelin-solidity/contracts/ownership/Ownable.sol';\nimport './NamespaceProxy.sol';\n\ncontract Map is Ownable {\n\n\tNamespaceProxy npContract;\n\t//\taddress NpAddr0;\n\tuint[1000][1000] public paintMap;\n\taddress[1000][1000] public ownerMap;\n\tuint[1000][1000] public cntMap;\n\n\n\tfunction Map(address NpAddr) public {\n\t\tnpContract = NamespaceProxy(NpAddr);\n\t\t//\t\tNpAddr0 = NpAddr;\n\t}\n\n\tmodifier fromTrust() {\n\t\trequire(msg.sender == owner || msg.sender == address(npContract.getContract(\"BuyControler\")));\n\t\t_;\n\t}\n\n\n\tfunction setMap(uint x, uint y, uint color, address buyer) public fromTrust {\n\t\tpaintMap[x][y] = color;\n\t\townerMap[x][y] = address(buyer);\n\t\tcntMap[x][y] = cntMap[x][y] + 1;\n\t}\n\n}\n",
  "sourcePath": "/Users/cyh/WebstormProjects/eth-solidity/canvas/contracts/Map.sol",
  "compiler": {
    "name": "solc",
    "version": "0.4.21+commit.dfe3193c.Emscripten.clang"
  },
  "schemaVersion": "2.0.0",
  "updatedAt": "2018-05-02T18:38:59.981Z"
}