{
  "contractName": "BuyControler",
  "abi": [
    {
      "constant": false,
      "inputs": [
        {
          "name": "x",
          "type": "uint256"
        },
        {
          "name": "y",
          "type": "uint256"
        },
        {
          "name": "color",
          "type": "uint256"
        }
      ],
      "name": "buyPoint",
      "outputs": [
        {
          "name": "",
          "type": "address"
        }
      ],
      "payable": true,
      "stateMutability": "payable",
      "type": "function"
    }
  ],
  "bytecode": "0x6060604052341561000f57600080fd5b6101e28061001e6000396000f300606060405260043610610041576000357c0100000000000000000000000000000000000000000000000000000000900463ffffffff168063ecbb9dba14610046575b600080fd5b61006e60048080359060200190919080359060200190919080359060200190919050506100b0565b604051808273ffffffffffffffffffffffffffffffffffffffff1673ffffffffffffffffffffffffffffffffffffffff16815260200191505060405180910390f35b600080600080734b144aaac82dbafec80d93431770bf7fad14bcc192503391508273ffffffffffffffffffffffffffffffffffffffff1663724b329062015f908989898760016040518763ffffffff167c0100000000000000000000000000000000000000000000000000000000028152600401808681526020018581526020018481526020018373ffffffffffffffffffffffffffffffffffffffff1673ffffffffffffffffffffffffffffffffffffffff16815260200182815260200195505050505050602060405180830381600088803b151561018f57600080fd5b87f1151561019c57600080fd5b5050505060405180519050905080935050505093925050505600a165627a7a72305820752e928db72eb28e578b48edb34b74ca431fb6310863d7ff3a5ea52ceb23e7ff0029",
  "source": "pragma solidity ^0.4.21;\nimport './Map.sol';\ncontract BuyControler {\n\tfunction buyPoint(uint x, uint y, uint color) public payable returns (address) {\n\n\t\tMap map = Map(address(0x4b144aaac82dbafec80d93431770bf7fad14bcc1));\n\t\taddress buyer = msg.sender;\n\t\taddress aaa = map.setMap.gas(90000)(x, y, color, buyer, 1);\n\n\t\treturn aaa;\n\t}\n}",
  "sourcePath": "/Users/cyh/WebstormProjects/eth-solidity/bugs/contracts/BuyControler.sol",
  "compiler": {
    "name": "solc",
    "version": "0.4.21+commit.dfe3193c.Emscripten.clang"
  },
  "schemaVersion": "2.0.0",
  "updatedAt": "2018-05-02T14:31:52.966Z"
}