{
  "contractName": "Map",
  "abi": [
    {
      "constant": true,
      "inputs": [],
      "name": "last",
      "outputs": [
        {
          "name": "",
          "type": "address"
        }
      ],
      "payable": false,
      "stateMutability": "view",
      "type": "function"
    },
    {
      "constant": true,
      "inputs": [
        {
          "name": "",
          "type": "uint256"
        },
        {
          "name": "",
          "type": "uint256"
        }
      ],
      "name": "paintMap",
      "outputs": [
        {
          "name": "",
          "type": "uint256"
        }
      ],
      "payable": false,
      "stateMutability": "view",
      "type": "function"
    },
    {
      "constant": true,
      "inputs": [
        {
          "name": "",
          "type": "uint256"
        },
        {
          "name": "",
          "type": "uint256"
        }
      ],
      "name": "cntMap",
      "outputs": [
        {
          "name": "",
          "type": "uint256"
        }
      ],
      "payable": false,
      "stateMutability": "view",
      "type": "function"
    },
    {
      "constant": true,
      "inputs": [
        {
          "name": "",
          "type": "uint256"
        },
        {
          "name": "",
          "type": "uint256"
        }
      ],
      "name": "ownerMap",
      "outputs": [
        {
          "name": "",
          "type": "address"
        }
      ],
      "payable": false,
      "stateMutability": "view",
      "type": "function"
    },
    {
      "constant": false,
      "inputs": [
        {
          "name": "x",
          "type": "uint256"
        },
        {
          "name": "y",
          "type": "uint256"
        },
        {
          "name": "color",
          "type": "uint256"
        },
        {
          "name": "buyer",
          "type": "address"
        },
        {
          "name": "buyCnt",
          "type": "uint256"
        }
      ],
      "name": "setMap",
      "outputs": [
        {
          "name": "",
          "type": "address"
        }
      ],
      "payable": false,
      "stateMutability": "nonpayable",
      "type": "function"
    }
  ],
  "bytecode": "0x6060604052341561000f57600080fd5b6103f78061001e6000396000f30060606040526004361061006d576000357c0100000000000000000000000000000000000000000000000000000000900463ffffffff16806347799da814610072578063724b3290146100c7578063744f3bcd146101645780638bcb6dd8146101a4578063e08d580e146101e4575b600080fd5b341561007d57600080fd5b610085610250565b604051808273ffffffffffffffffffffffffffffffffffffffff1673ffffffffffffffffffffffffffffffffffffffff16815260200191505060405180910390f35b34156100d257600080fd5b610122600480803590602001909190803590602001909190803590602001909190803573ffffffffffffffffffffffffffffffffffffffff16906020019091908035906020019091905050610278565b604051808273ffffffffffffffffffffffffffffffffffffffff1673ffffffffffffffffffffffffffffffffffffffff16815260200191505060405180910390f35b341561016f57600080fd5b61018e600480803590602001909190803590602001909190505061031d565b6040518082815260200191505060405180910390f35b34156101af57600080fd5b6101ce600480803590602001909190803590602001909190505061034c565b6040518082815260200191505060405180910390f35b34156101ef57600080fd5b61020e600480803590602001909190803590602001909190505061037d565b604051808273ffffffffffffffffffffffffffffffffffffffff1673ffffffffffffffffffffffffffffffffffffffff16815260200191505060405180910390f35b622dc6c060009054906101000a900473ffffffffffffffffffffffffffffffffffffffff1681565b6000836000876103e88110151561028b57fe5b6103e80201866103e88110151561029e57fe5b018190555082622dc6c060006101000a81548173ffffffffffffffffffffffffffffffffffffffff021916908373ffffffffffffffffffffffffffffffffffffffff16021790555081621e8480876103e8811015156102f957fe5b6103e80201866103e88110151561030c57fe5b018190555082905095945050505050565b6000826103e88110151561032d57fe5b6103e80201816103e88110151561034057fe5b01600091509150505481565b621e8480826103e88110151561035e57fe5b6103e80201816103e88110151561037157fe5b01600091509150505481565b620f4240826103e88110151561038f57fe5b6103e80201816103e8811015156103a257fe5b016000915091509054906101000a900473ffffffffffffffffffffffffffffffffffffffff16815600a165627a7a72305820ab0338233641a8688fbbd0844b3fbd3d4fa5705158c06f28dcda8567289cdb550029",
  "source": "pragma solidity ^0.4.21;\ncontract Map {\n\tuint[1000][1000] public paintMap;\n\taddress[1000][1000] public ownerMap;\n\tuint[1000][1000] public cntMap;\n\taddress public last;\n\n\tfunction setMap(uint x, uint y, uint color, address buyer, uint buyCnt) public returns (address) {\n\t\tpaintMap[x][y] = color;\n\t\tlast = buyer;\n\t\tcntMap[x][y] = buyCnt;\n\t\treturn buyer;\n\t}\n\n}",
  "sourcePath": "/Users/cyh/WebstormProjects/eth-solidity/bugs/contracts/Map.sol",
  "compiler": {
    "name": "solc",
    "version": "0.4.21+commit.dfe3193c.Emscripten.clang"
  },
  "schemaVersion": "2.0.0",
  "updatedAt": "2018-05-02T14:31:52.490Z"
}