{
  "contractName": "BuyControler",
  "abi": [
    {
      "constant": true,
      "inputs": [],
      "name": "totalPayments",
      "outputs": [
        {
          "name": "",
          "type": "uint256"
        }
      ],
      "payable": false,
      "stateMutability": "view",
      "type": "function"
    },
    {
      "constant": false,
      "inputs": [],
      "name": "unpause",
      "outputs": [],
      "payable": false,
      "stateMutability": "nonpayable",
      "type": "function"
    },
    {
      "constant": true,
      "inputs": [],
      "name": "paused",
      "outputs": [
        {
          "name": "",
          "type": "bool"
        }
      ],
      "payable": false,
      "stateMutability": "view",
      "type": "function"
    },
    {
      "constant": false,
      "inputs": [],
      "name": "withdrawPayments",
      "outputs": [],
      "payable": false,
      "stateMutability": "nonpayable",
      "type": "function"
    },
    {
      "constant": false,
      "inputs": [],
      "name": "destroy",
      "outputs": [],
      "payable": false,
      "stateMutability": "nonpayable",
      "type": "function"
    },
    {
      "constant": false,
      "inputs": [],
      "name": "pause",
      "outputs": [],
      "payable": false,
      "stateMutability": "nonpayable",
      "type": "function"
    },
    {
      "constant": true,
      "inputs": [],
      "name": "owner",
      "outputs": [
        {
          "name": "",
          "type": "address"
        }
      ],
      "payable": false,
      "stateMutability": "view",
      "type": "function"
    },
    {
      "constant": true,
      "inputs": [
        {
          "name": "",
          "type": "address"
        }
      ],
      "name": "payments",
      "outputs": [
        {
          "name": "",
          "type": "uint256"
        }
      ],
      "payable": false,
      "stateMutability": "view",
      "type": "function"
    },
    {
      "constant": false,
      "inputs": [
        {
          "name": "newOwner",
          "type": "address"
        }
      ],
      "name": "transferOwnership",
      "outputs": [],
      "payable": false,
      "stateMutability": "nonpayable",
      "type": "function"
    },
    {
      "constant": false,
      "inputs": [
        {
          "name": "_recipient",
          "type": "address"
        }
      ],
      "name": "destroyAndSend",
      "outputs": [],
      "payable": false,
      "stateMutability": "nonpayable",
      "type": "function"
    },
    {
      "inputs": [
        {
          "name": "NpAddr",
          "type": "address"
        }
      ],
      "payable": false,
      "stateMutability": "nonpayable",
      "type": "constructor"
    },
    {
      "anonymous": false,
      "inputs": [
        {
          "indexed": true,
          "name": "x",
          "type": "uint256"
        },
        {
          "indexed": true,
          "name": "y",
          "type": "uint256"
        },
        {
          "indexed": false,
          "name": "color",
          "type": "uint8"
        }
      ],
      "name": "BuyPointSucceed",
      "type": "event"
    },
    {
      "anonymous": false,
      "inputs": [],
      "name": "Pause",
      "type": "event"
    },
    {
      "anonymous": false,
      "inputs": [],
      "name": "Unpause",
      "type": "event"
    },
    {
      "anonymous": false,
      "inputs": [
        {
          "indexed": true,
          "name": "previousOwner",
          "type": "address"
        },
        {
          "indexed": true,
          "name": "newOwner",
          "type": "address"
        }
      ],
      "name": "OwnershipTransferred",
      "type": "event"
    },
    {
      "constant": true,
      "inputs": [
        {
          "name": "x",
          "type": "uint256"
        },
        {
          "name": "y",
          "type": "uint256"
        }
      ],
      "name": "getPointPrice",
      "outputs": [
        {
          "name": "price",
          "type": "uint256"
        },
        {
          "name": "payLast",
          "type": "uint256"
        }
      ],
      "payable": false,
      "stateMutability": "view",
      "type": "function"
    },
    {
      "constant": false,
      "inputs": [
        {
          "name": "x",
          "type": "uint256"
        },
        {
          "name": "y",
          "type": "uint256"
        },
        {
          "name": "color",
          "type": "uint8"
        }
      ],
      "name": "buyPoint",
      "outputs": [],
      "payable": true,
      "stateMutability": "payable",
      "type": "function"
    }
  ],
  "bytecode": "0x60606040526000600360006101000a81548160ff021916908315150217905550341561002a57600080fd5b60405160208061101b83398101604052808051906020019091905050336000806101000a81548173ffffffffffffffffffffffffffffffffffffffff021916908373ffffffffffffffffffffffffffffffffffffffff16021790555080600360016101000a81548173ffffffffffffffffffffffffffffffffffffffff021916908373ffffffffffffffffffffffffffffffffffffffff16021790555050610f44806100d76000396000f3006060604052600436106100b9576000357c0100000000000000000000000000000000000000000000000000000000900463ffffffff1680625b4487146100be5780633f4ba83a146100e75780635c975abb146100fc5780636103d70b1461012957806383197ef01461013e5780638456cb59146101535780638da5cb5b1461016857806390a2a3d1146101bd578063b4b3ef1a14610204578063e2982c2114610231578063f2fde38b1461027e578063f5074f41146102b7575b600080fd5b34156100c957600080fd5b6100d16102f0565b6040518082815260200191505060405180910390f35b34156100f257600080fd5b6100fa6102f6565b005b341561010757600080fd5b61010f6103b5565b604051808215151515815260200191505060405180910390f35b341561013457600080fd5b61013c6103c8565b005b341561014957600080fd5b6101516104ea565b005b341561015e57600080fd5b61016661057f565b005b341561017357600080fd5b61017b61063f565b604051808273ffffffffffffffffffffffffffffffffffffffff1673ffffffffffffffffffffffffffffffffffffffff16815260200191505060405180910390f35b34156101c857600080fd5b6101e76004808035906020019091908035906020019091905050610664565b604051808381526020018281526020019250505060405180910390f35b61022f600480803590602001909190803590602001909190803560ff16906020019091905050610805565b005b341561023c57600080fd5b610268600480803573ffffffffffffffffffffffffffffffffffffffff16906020019091905050610966565b6040518082815260200191505060405180910390f35b341561028957600080fd5b6102b5600480803573ffffffffffffffffffffffffffffffffffffffff1690602001909190505061097e565b005b34156102c257600080fd5b6102ee600480803573ffffffffffffffffffffffffffffffffffffffff16906020019091905050610ad3565b005b60025481565b6000809054906101000a900473ffffffffffffffffffffffffffffffffffffffff1673ffffffffffffffffffffffffffffffffffffffff163373ffffffffffffffffffffffffffffffffffffffff1614151561035157600080fd5b600360009054906101000a900460ff16151561036c57600080fd5b6000600360006101000a81548160ff0219169083151502179055507f7805862f689e2f13df9f062ff482ad3ad112aca9e0847911ed832e158c525b3360405160405180910390a1565b600360009054906101000a900460ff1681565b600080339150600160008373ffffffffffffffffffffffffffffffffffffffff1673ffffffffffffffffffffffffffffffffffffffff1681526020019081526020016000205490506000811415151561042057600080fd5b803073ffffffffffffffffffffffffffffffffffffffff16311015151561044657600080fd5b61045b81600254610b4790919063ffffffff16565b6002819055506000600160008473ffffffffffffffffffffffffffffffffffffffff1673ffffffffffffffffffffffffffffffffffffffff168152602001908152602001600020819055508173ffffffffffffffffffffffffffffffffffffffff166108fc829081150290604051600060405180830381858888f1935050505015156104e657600080fd5b5050565b6000809054906101000a900473ffffffffffffffffffffffffffffffffffffffff1673ffffffffffffffffffffffffffffffffffffffff163373ffffffffffffffffffffffffffffffffffffffff1614151561054557600080fd5b6000809054906101000a900473ffffffffffffffffffffffffffffffffffffffff1673ffffffffffffffffffffffffffffffffffffffff16ff5b6000809054906101000a900473ffffffffffffffffffffffffffffffffffffffff1673ffffffffffffffffffffffffffffffffffffffff163373ffffffffffffffffffffffffffffffffffffffff161415156105da57600080fd5b600360009054906101000a900460ff161515156105f657600080fd5b6001600360006101000a81548160ff0219169083151502179055507f6985a02210a168e66602d3235cb6db0e70f92b3ba4d376a33c0f3d9434bff62560405160405180910390a1565b6000809054906101000a900473ffffffffffffffffffffffffffffffffffffffff1681565b6000806000600360019054906101000a900473ffffffffffffffffffffffffffffffffffffffff1673ffffffffffffffffffffffffffffffffffffffff1663358177736040518163ffffffff167c01000000000000000000000000000000000000000000000000000000000281526004018080602001828103825260038152602001807f4d61700000000000000000000000000000000000000000000000000000000000815250602001915050602060405180830381600087803b151561072a57600080fd5b5af1151561073757600080fd5b5050506040518051905090506107e96107dd8273ffffffffffffffffffffffffffffffffffffffff16638bcb6dd888886040518363ffffffff167c01000000000000000000000000000000000000000000000000000000000281526004018083815260200182815260200192505050602060405180830381600087803b15156107bf57600080fd5b5af115156107cc57600080fd5b505050604051805190506002610b60565b65b5e620f48000610b60565b91506107fb8265b5e620f48000610b98565b9250509250929050565b60008084848460328310801561081b5750603282105b801561082a575060008160ff16115b8015610839575060ff8160ff16105b151561084457600080fd5b600360009054906101000a900460ff1615151561086057600080fd5b3073ffffffffffffffffffffffffffffffffffffffff166390a2a3d189896040518363ffffffff167c010000000000000000000000000000000000000000000000000000000002815260040180838152602001828152602001925050506040805180830381600087803b15156108d557600080fd5b5af115156108e257600080fd5b50505060405180519060200180519050809550819650505084341015151561090957600080fd5b61091d610917898989610bb4565b85610df0565b86887ff6f837a94cb8976edc4d0389ea1e8ec5dda90bd639a5dfd7fd0b35bc55f81e9d88604051808260ff1660ff16815260200191505060405180910390a35050505050505050565b60016020528060005260406000206000915090505481565b6000809054906101000a900473ffffffffffffffffffffffffffffffffffffffff1673ffffffffffffffffffffffffffffffffffffffff163373ffffffffffffffffffffffffffffffffffffffff161415156109d957600080fd5b600073ffffffffffffffffffffffffffffffffffffffff168173ffffffffffffffffffffffffffffffffffffffff1614151515610a1557600080fd5b8073ffffffffffffffffffffffffffffffffffffffff166000809054906101000a900473ffffffffffffffffffffffffffffffffffffffff1673ffffffffffffffffffffffffffffffffffffffff167f8be0079c531659141344cd1fd0a4f28419497f9722a3daafe3b4186f6b6457e060405160405180910390a3806000806101000a81548173ffffffffffffffffffffffffffffffffffffffff021916908373ffffffffffffffffffffffffffffffffffffffff16021790555050565b6000809054906101000a900473ffffffffffffffffffffffffffffffffffffffff1673ffffffffffffffffffffffffffffffffffffffff163373ffffffffffffffffffffffffffffffffffffffff16141515610b2e57600080fd5b8073ffffffffffffffffffffffffffffffffffffffff16ff5b6000828211151515610b5557fe5b818303905092915050565b600080831415610b735760009050610b92565b8183029050818382811515610b8457fe5b04141515610b8e57fe5b8090505b92915050565b60008183019050828110151515610bab57fe5b80905092915050565b600080600360019054906101000a900473ffffffffffffffffffffffffffffffffffffffff1673ffffffffffffffffffffffffffffffffffffffff1663358177736040518163ffffffff167c01000000000000000000000000000000000000000000000000000000000281526004018080602001828103825260038152602001807f4d61700000000000000000000000000000000000000000000000000000000000815250602001915050602060405180830381600087803b1515610c7857600080fd5b5af11515610c8557600080fd5b5050506040518051905090508073ffffffffffffffffffffffffffffffffffffffff1663e08d580e86866040518363ffffffff167c01000000000000000000000000000000000000000000000000000000000281526004018083815260200182815260200192505050602060405180830381600087803b1515610d0757600080fd5b5af11515610d1457600080fd5b5050506040518051905091508073ffffffffffffffffffffffffffffffffffffffff16639de85df1868686336040518563ffffffff167c0100000000000000000000000000000000000000000000000000000000028152600401808581526020018481526020018360ff1660ff1681526020018273ffffffffffffffffffffffffffffffffffffffff1673ffffffffffffffffffffffffffffffffffffffff168152602001945050505050600060405180830381600087803b1515610dd857600080fd5b5af11515610de557600080fd5b505050509392505050565b600073ffffffffffffffffffffffffffffffffffffffff168273ffffffffffffffffffffffffffffffffffffffff16141580610e2c5750600081145b15610e6057610e3b8282610e64565b610e5f73abf74c68a27057c5124f3880be70563bb52879da65b5e620f48000610e64565b5b5050565b610eb681600160008573ffffffffffffffffffffffffffffffffffffffff1673ffffffffffffffffffffffffffffffffffffffff16815260200190815260200160002054610b9890919063ffffffff16565b600160008473ffffffffffffffffffffffffffffffffffffffff1673ffffffffffffffffffffffffffffffffffffffff16815260200190815260200160002081905550610f0e81600254610b9890919063ffffffff16565b60028190555050505600a165627a7a72305820da959593d6dee76736fedc82183ee443abb5b6781756817f58aab24463b6b82e0029",
  "source": "pragma solidity ^0.4.21;\n\nimport 'zeppelin-solidity/contracts/ownership/Ownable.sol';\nimport 'zeppelin-solidity/contracts/math/SafeMath.sol';\nimport 'zeppelin-solidity/contracts/payment/PullPayment.sol';\nimport 'zeppelin-solidity/contracts/lifecycle/Destructible.sol';\nimport 'zeppelin-solidity/contracts/lifecycle/Pausable.sol';\nimport './NamespaceProxy.sol';\nimport './Map.sol';\n\ncontract BuyControler is Ownable, PullPayment, Pausable, Destructible {\n    using SafeMath for uint256;\n\n    NamespaceProxy npContract;\n    //200 Szabo\n    uint constant basePrice = 200000000000000;\n\n    event BuyPointSucceed(uint indexed x, uint indexed y, uint8 color);\n\n    function BuyControler(address NpAddr) public {\n        npContract = NamespaceProxy(NpAddr);\n    }\n\n    function getPointPrice(uint x, uint y) public view returns (uint price, uint payLast) {\n        Map map = Map(address(npContract.getContract(\"Map\")));\n        //\t\tuint cnt = map.cntMap(x, y);\n        //price= cnt*2*basePrice+basePrice\n        payLast = SafeMath.mul(SafeMath.mul(map.cntMap(x, y), 2), basePrice);\n        price = SafeMath.add(payLast, basePrice);\n    }\n\n\n\n    modifier isAllow(uint x, uint y, uint8 color) {\n        require(x < 50 && y < 50 && color > 0 && color < 255);\n        _;\n    }\n\n    function paintPoint(uint x, uint y, uint8 color) internal returns (address last) {\n        Map map = Map(address(npContract.getContract(\"Map\")));\n        last = map.ownerMap(x, y);\n        map.setMap(x, y, color, msg.sender);\n    }\n\n\n    function sendBuyPayment(address lastOwner, uint payLast) internal {\n        if (lastOwner != address(0) || payLast == 0) {\n            asyncSend(lastOwner, payLast);\n            asyncSend(address(0xAbF74C68A27057c5124f3880BE70563bb52879DA), basePrice);\n        }\n    }\n\n    function buyPoint(uint x, uint y, uint8 color) public payable isAllow(x, y, color) whenNotPaused {\n        uint price;\n        uint payLast;\n        (price, payLast) = this.getPointPrice(x, y);\n        require(msg.value >= price);\n        //set\n        //\t\taddress lastOwner = paintPoint(x, y, color);\n        //sendPay\n\n        sendBuyPayment(paintPoint(x, y, color), payLast);\n        emit BuyPointSucceed(x, y, color);\n    }\n}\n",
  "sourcePath": "/Users/cyh/WebstormProjects/eth-canvas/contracts/BuyControler.sol",
  "compiler": {
    "name": "solc",
    "version": "0.4.21+commit.dfe3193c.Emscripten.clang"
  },
  "schemaVersion": "2.0.0",
  "updatedAt": "2018-05-04T14:56:04.552Z"
}