{
  "contractName": "Map",
  "abi": [
    {
      "constant": true,
      "inputs": [
        {
          "name": "",
          "type": "uint256"
        },
        {
          "name": "",
          "type": "uint256"
        }
      ],
      "name": "paintMap",
      "outputs": [
        {
          "name": "",
          "type": "uint8"
        }
      ],
      "payable": false,
      "stateMutability": "view",
      "type": "function"
    },
    {
      "constant": true,
      "inputs": [
        {
          "name": "",
          "type": "uint256"
        },
        {
          "name": "",
          "type": "uint256"
        }
      ],
      "name": "cntMap",
      "outputs": [
        {
          "name": "",
          "type": "uint256"
        }
      ],
      "payable": false,
      "stateMutability": "view",
      "type": "function"
    },
    {
      "constant": true,
      "inputs": [],
      "name": "owner",
      "outputs": [
        {
          "name": "",
          "type": "address"
        }
      ],
      "payable": false,
      "stateMutability": "view",
      "type": "function"
    },
    {
      "constant": true,
      "inputs": [
        {
          "name": "",
          "type": "uint256"
        },
        {
          "name": "",
          "type": "uint256"
        }
      ],
      "name": "ownerMap",
      "outputs": [
        {
          "name": "",
          "type": "address"
        }
      ],
      "payable": false,
      "stateMutability": "view",
      "type": "function"
    },
    {
      "constant": false,
      "inputs": [
        {
          "name": "newOwner",
          "type": "address"
        }
      ],
      "name": "transferOwnership",
      "outputs": [],
      "payable": false,
      "stateMutability": "nonpayable",
      "type": "function"
    },
    {
      "inputs": [
        {
          "name": "NpAddr",
          "type": "address"
        }
      ],
      "payable": false,
      "stateMutability": "nonpayable",
      "type": "constructor"
    },
    {
      "anonymous": false,
      "inputs": [
        {
          "indexed": true,
          "name": "previousOwner",
          "type": "address"
        },
        {
          "indexed": true,
          "name": "newOwner",
          "type": "address"
        }
      ],
      "name": "OwnershipTransferred",
      "type": "event"
    },
    {
      "constant": false,
      "inputs": [
        {
          "name": "x",
          "type": "uint256"
        },
        {
          "name": "y",
          "type": "uint256"
        },
        {
          "name": "color",
          "type": "uint8"
        },
        {
          "name": "buyer",
          "type": "address"
        }
      ],
      "name": "setMap",
      "outputs": [],
      "payable": false,
      "stateMutability": "nonpayable",
      "type": "function"
    },
    {
      "constant": true,
      "inputs": [],
      "name": "getPaintMap",
      "outputs": [
        {
          "name": "",
          "type": "uint8[50][50]"
        }
      ],
      "payable": false,
      "stateMutability": "view",
      "type": "function"
    },
    {
      "constant": true,
      "inputs": [
        {
          "name": "x",
          "type": "uint256"
        }
      ],
      "name": "getPaintMapRow",
      "outputs": [
        {
          "name": "",
          "type": "uint8[50]"
        }
      ],
      "payable": false,
      "stateMutability": "view",
      "type": "function"
    }
  ],
  "bytecode": "0x6060604052341561000f57600080fd5b604051602080610a6283398101604052808051906020019091905050336000806101000a81548173ffffffffffffffffffffffffffffffffffffffff021916908373ffffffffffffffffffffffffffffffffffffffff16021790555080600160006101000a81548173ffffffffffffffffffffffffffffffffffffffff021916908373ffffffffffffffffffffffffffffffffffffffff160217905550506109a6806100bc6000396000f30060606040526004361061008e576000357c0100000000000000000000000000000000000000000000000000000000900463ffffffff168063744f3bcd146100935780638bcb6dd8146100d95780638da5cb5b146101195780639de85df11461016e578063b1663e98146101c5578063e08d580e14610224578063f2fde38b14610290578063f75b1b3f146102c9575b600080fd5b341561009e57600080fd5b6100bd600480803590602001909190803590602001909190505061033d565b604051808260ff1660ff16815260200191505060405180910390f35b34156100e457600080fd5b610103600480803590602001909190803590602001909190505061037a565b6040518082815260200191505060405180910390f35b341561012457600080fd5b61012c6103a7565b604051808273ffffffffffffffffffffffffffffffffffffffff1673ffffffffffffffffffffffffffffffffffffffff16815260200191505060405180910390f35b341561017957600080fd5b6101c3600480803590602001909190803590602001909190803560ff1690602001909190803573ffffffffffffffffffffffffffffffffffffffff169060200190919050506103cc565b005b34156101d057600080fd5b6101e66004808035906020019091905050610627565b6040518082603260200280838360005b838110156102115780820151818401526020810190506101f6565b5050505090500191505060405180910390f35b341561022f57600080fd5b61024e60048080359060200190919080359060200190919050506106ab565b604051808273ffffffffffffffffffffffffffffffffffffffff1673ffffffffffffffffffffffffffffffffffffffff16815260200191505060405180910390f35b341561029b57600080fd5b6102c7600480803573ffffffffffffffffffffffffffffffffffffffff169060200190919050506106f4565b005b34156102d457600080fd5b6102dc610849565b604051808260326000925b8184101561032d5782846020020151603260200280838360005b8381101561031c578082015181840152602081019050610301565b5050505090500192600101926102e7565b9250505091505060405180910390f35b60028260328110151561034c57fe5b600202018160328110151561035d57fe5b60209182820401919006915091509054906101000a900460ff1681565b610a2a8260328110151561038a57fe5b603202018160328110151561039b57fe5b01600091509150505481565b6000809054906101000a900473ffffffffffffffffffffffffffffffffffffffff1681565b6000809054906101000a900473ffffffffffffffffffffffffffffffffffffffff1673ffffffffffffffffffffffffffffffffffffffff163373ffffffffffffffffffffffffffffffffffffffff1614806105295750600160009054906101000a900473ffffffffffffffffffffffffffffffffffffffff1673ffffffffffffffffffffffffffffffffffffffff1663358177736040518163ffffffff167c010000000000000000000000000000000000000000000000000000000002815260040180806020018281038252600c8152602001807f427579436f6e74726f6c65720000000000000000000000000000000000000000815250602001915050602060405180830381600087803b15156104e357600080fd5b5af115156104f057600080fd5b5050506040518051905073ffffffffffffffffffffffffffffffffffffffff163373ffffffffffffffffffffffffffffffffffffffff16145b151561053457600080fd5b8160028560328110151561054457fe5b600202018460328110151561055557fe5b602091828204019190066101000a81548160ff021916908360ff1602179055508060668560328110151561058557fe5b603202018460328110151561059657fe5b0160006101000a81548173ffffffffffffffffffffffffffffffffffffffff021916908373ffffffffffffffffffffffffffffffffffffffff1602179055506001610a2a856032811015156105e757fe5b60320201846032811015156105f857fe5b015401610a2a8560328110151561060b57fe5b603202018460328110151561061c57fe5b018190555050505050565b61062f6108f2565b60028260328110151561063e57fe5b6002020160328060200260405190810160405280929190826032801561069f576020028201916000905b82829054906101000a900460ff1660ff16815260200190600101906020826000010492830192600103820291508084116106685790505b50505050509050919050565b6066826032811015156106ba57fe5b60320201816032811015156106cb57fe5b016000915091509054906101000a900473ffffffffffffffffffffffffffffffffffffffff1681565b6000809054906101000a900473ffffffffffffffffffffffffffffffffffffffff1673ffffffffffffffffffffffffffffffffffffffff163373ffffffffffffffffffffffffffffffffffffffff1614151561074f57600080fd5b600073ffffffffffffffffffffffffffffffffffffffff168173ffffffffffffffffffffffffffffffffffffffff161415151561078b57600080fd5b8073ffffffffffffffffffffffffffffffffffffffff166000809054906101000a900473ffffffffffffffffffffffffffffffffffffffff1673ffffffffffffffffffffffffffffffffffffffff167f8be0079c531659141344cd1fd0a4f28419497f9722a3daafe3b4186f6b6457e060405160405180910390a3806000806101000a81548173ffffffffffffffffffffffffffffffffffffffff021916908373ffffffffffffffffffffffffffffffffffffffff16021790555050565b61085161091e565b6002603280602002604051908101604052809291906000905b828210156108e9578382600202016032806020026040519081016040528092919082603280156108d5576020028201916000905b82829054906101000a900460ff1660ff168152602001906001019060208260000104928301926001038202915080841161089e5790505b50505050508152602001906001019061086a565b50505050905090565b610640604051908101604052806032905b600060ff168152602001906001900390816109035790505090565b62013880604051908101604052806032905b61093861094e565b8152602001906001900390816109305790505090565b610640604051908101604052806032905b600060ff1681526020019060019003908161095f57905050905600a165627a7a72305820304f59fe2227644fa3e676fe5535dd324f297fd7d20a6698172815d1436d98180029",
  "source": "pragma solidity ^0.4.21;\n\nimport 'zeppelin-solidity/contracts/ownership/Ownable.sol';\nimport './NamespaceProxy.sol';\n\ncontract Map is Ownable {\n\n    NamespaceProxy npContract;\n    //\taddress NpAddr0;\n    uint8[50][50] public paintMap;\n    address[50][50] public ownerMap;\n    uint[50][50] public cntMap;\n\n\n    function Map(address NpAddr) public {\n        npContract = NamespaceProxy(NpAddr);\n        //\t\tNpAddr0 = NpAddr;\n    }\n\n    modifier fromTrust() {\n        require(msg.sender == owner || msg.sender == address(npContract.getContract(\"BuyControler\")));\n        _;\n    }\n\n\n    function setMap(uint x, uint y, uint8 color, address buyer) public fromTrust {\n        paintMap[x][y] = color;\n        ownerMap[x][y] = buyer;\n        cntMap[x][y] = cntMap[x][y] + 1;\n    }\n\n    function getPaintMap() public view returns (uint8[50][50]){\n        return paintMap;\n    }\n\n    function getPaintMapRow(uint x) public view returns (uint8[50]){\n        return paintMap[x];\n    }\n\n\n}\n",
  "sourcePath": "/Users/cyh/WebstormProjects/eth-canvas/contracts/Map.sol",
  "compiler": {
    "name": "solc",
    "version": "0.4.21+commit.dfe3193c.Emscripten.clang"
  },
  "schemaVersion": "2.0.0",
  "updatedAt": "2018-05-04T14:54:30.465Z"
}