{
  "contractName": "NamespaceProxy",
  "abi": [
    {
      "constant": true,
      "inputs": [],
      "name": "owner",
      "outputs": [
        {
          "name": "",
          "type": "address"
        }
      ],
      "payable": false,
      "stateMutability": "view",
      "type": "function"
    },
    {
      "constant": false,
      "inputs": [
        {
          "name": "newOwner",
          "type": "address"
        }
      ],
      "name": "transferOwnership",
      "outputs": [],
      "payable": false,
      "stateMutability": "nonpayable",
      "type": "function"
    },
    {
      "anonymous": false,
      "inputs": [
        {
          "indexed": true,
          "name": "previousOwner",
          "type": "address"
        },
        {
          "indexed": true,
          "name": "newOwner",
          "type": "address"
        }
      ],
      "name": "OwnershipTransferred",
      "type": "event"
    },
    {
      "constant": false,
      "inputs": [
        {
          "name": "name",
          "type": "string"
        },
        {
          "name": "addr",
          "type": "address"
        }
      ],
      "name": "setContract",
      "outputs": [
        {
          "name": "",
          "type": "bool"
        }
      ],
      "payable": false,
      "stateMutability": "nonpayable",
      "type": "function"
    },
    {
      "constant": true,
      "inputs": [
        {
          "name": "name",
          "type": "string"
        }
      ],
      "name": "getContract",
      "outputs": [
        {
          "name": "addr",
          "type": "address"
        }
      ],
      "payable": false,
      "stateMutability": "view",
      "type": "function"
    },
    {
      "constant": false,
      "inputs": [
        {
          "name": "name",
          "type": "string"
        },
        {
          "name": "value",
          "type": "uint256"
        }
      ],
      "name": "setConstantUint",
      "outputs": [],
      "payable": false,
      "stateMutability": "nonpayable",
      "type": "function"
    },
    {
      "constant": true,
      "inputs": [
        {
          "name": "name",
          "type": "string"
        }
      ],
      "name": "getConstantUint",
      "outputs": [
        {
          "name": "",
          "type": "uint256"
        }
      ],
      "payable": false,
      "stateMutability": "view",
      "type": "function"
    }
  ],
  "bytecode": "0x6060604052336000806101000a81548173ffffffffffffffffffffffffffffffffffffffff021916908373ffffffffffffffffffffffffffffffffffffffff16021790555061097a806100536000396000f300606060405260043610610078576000357c0100000000000000000000000000000000000000000000000000000000900463ffffffff1680633080bfe01461007d57806335817773146100e35780633f0ed0df146101805780634e0ec175146102145780638da5cb5b14610285578063f2fde38b146102da575b600080fd5b341561008857600080fd5b6100e1600480803590602001908201803590602001908080601f01602080910402602001604051908101604052809392919081815260200183838082843782019150505050505091908035906020019091905050610313565b005b34156100ee57600080fd5b61013e600480803590602001908201803590602001908080601f016020809104026020016040519081016040528093929190818152602001838380828437820191505050505050919050506103f5565b604051808273ffffffffffffffffffffffffffffffffffffffff1673ffffffffffffffffffffffffffffffffffffffff16815260200191505060405180910390f35b341561018b57600080fd5b6101fa600480803590602001908201803590602001908080601f0160208091040260200160405190810160405280939291908181526020018383808284378201915050505050509190803573ffffffffffffffffffffffffffffffffffffffff1690602001909190505061048a565b604051808215151515815260200191505060405180910390f35b341561021f57600080fd5b61026f600480803590602001908201803590602001908080601f0160208091040260200160405190810160405280939291908181526020018383808284378201915050505050509190505061075f565b6040518082815260200191505060405180910390f35b341561029057600080fd5b6102986107d4565b604051808273ffffffffffffffffffffffffffffffffffffffff1673ffffffffffffffffffffffffffffffffffffffff16815260200191505060405180910390f35b34156102e557600080fd5b610311600480803573ffffffffffffffffffffffffffffffffffffffff169060200190919050506107f9565b005b6000809054906101000a900473ffffffffffffffffffffffffffffffffffffffff1673ffffffffffffffffffffffffffffffffffffffff163373ffffffffffffffffffffffffffffffffffffffff1614151561036e57600080fd5b81600081511415151561038057600080fd5b816002846040518082805190602001908083835b6020831015156103b95780518252602082019150602081019050602083039250610394565b6001836020036101000a038019825116818451168082178552505050505050905001915050908152602001604051809103902081905550505050565b60006001826040518082805190602001908083835b60208310151561042f578051825260208201915060208101905060208303925061040a565b6001836020036101000a038019825116818451168082178552505050505050905001915050908152602001604051809103902060009054906101000a900473ffffffffffffffffffffffffffffffffffffffff169050919050565b60008060009054906101000a900473ffffffffffffffffffffffffffffffffffffffff1673ffffffffffffffffffffffffffffffffffffffff163373ffffffffffffffffffffffffffffffffffffffff161415156104e757600080fd5b8260008151141515156104f957600080fd5b600073ffffffffffffffffffffffffffffffffffffffff168373ffffffffffffffffffffffffffffffffffffffff161415151561053557600080fd5b600073ffffffffffffffffffffffffffffffffffffffff166001856040518082805190602001908083835b6020831015156105855780518252602082019150602081019050602083039250610560565b6001836020036101000a038019825116818451168082178552505050505050905001915050908152602001604051809103902060009054906101000a900473ffffffffffffffffffffffffffffffffffffffff1673ffffffffffffffffffffffffffffffffffffffff161415156106a957826001856040518082805190602001908083835b60208310151561062f578051825260208201915060208101905060208303925061060a565b6001836020036101000a038019825116818451168082178552505050505050905001915050908152602001604051809103902060006101000a81548173ffffffffffffffffffffffffffffffffffffffff021916908373ffffffffffffffffffffffffffffffffffffffff16021790555060019150610758565b826001856040518082805190602001908083835b6020831015156106e257805182526020820191506020810190506020830392506106bd565b6001836020036101000a038019825116818451168082178552505050505050905001915050908152602001604051809103902060006101000a81548173ffffffffffffffffffffffffffffffffffffffff021916908373ffffffffffffffffffffffffffffffffffffffff160217905550600091505b5092915050565b60006002826040518082805190602001908083835b6020831015156107995780518252602082019150602081019050602083039250610774565b6001836020036101000a0380198251168184511680821785525050505050509050019150509081526020016040518091039020549050919050565b6000809054906101000a900473ffffffffffffffffffffffffffffffffffffffff1681565b6000809054906101000a900473ffffffffffffffffffffffffffffffffffffffff1673ffffffffffffffffffffffffffffffffffffffff163373ffffffffffffffffffffffffffffffffffffffff1614151561085457600080fd5b600073ffffffffffffffffffffffffffffffffffffffff168173ffffffffffffffffffffffffffffffffffffffff161415151561089057600080fd5b8073ffffffffffffffffffffffffffffffffffffffff166000809054906101000a900473ffffffffffffffffffffffffffffffffffffffff1673ffffffffffffffffffffffffffffffffffffffff167f8be0079c531659141344cd1fd0a4f28419497f9722a3daafe3b4186f6b6457e060405160405180910390a3806000806101000a81548173ffffffffffffffffffffffffffffffffffffffff021916908373ffffffffffffffffffffffffffffffffffffffff160217905550505600a165627a7a72305820ac48905559d5a4b98de93db00d2aa5a19c9ed776f9d97e9acc74f2535e7a2a8c0029",
  "source": "pragma solidity ^0.4.21;\n\nimport 'zeppelin-solidity/contracts/ownership/Ownable.sol';\n\ncontract NamespaceProxy is Ownable {\n\tmapping(string => address) allContracts;\n\tmapping(string => uint) constantUint;\n\n\tmodifier nameNotEmpty(string name) {\n\t\trequire(bytes(name).length != 0);\n\t\t_;\n\t}\n\n\tfunction setContract(string name, address addr) public onlyOwner nameNotEmpty(name) returns (bool) {\n\t\trequire(addr != address(0));\n\n\t\tif (allContracts[name] != address(0)) {\n\t\t\tallContracts[name] = addr;\n\t\t\treturn true;\n\t\t}\n\t\telse {\n\t\t\tallContracts[name] = addr;\n\t\t\treturn false;\n\t\t}\n\t}\n\n\tfunction getContract(string name) public view returns (address addr){\n\t\treturn allContracts[name];\n\t}\n\n\tfunction setConstantUint(string name, uint value) public onlyOwner nameNotEmpty(name) {\n\t\tconstantUint[name] = value;\n\t}\n\n\tfunction getConstantUint(string name) public view returns (uint) {\n\t\treturn constantUint[name];\n\t}\n\n\n}\n",
  "sourcePath": "/Users/cyh/WebstormProjects/eth-canvas/contracts/NamespaceProxy.sol",
  "compiler": {
    "name": "solc",
    "version": "0.4.21+commit.dfe3193c.Emscripten.clang"
  },
  "schemaVersion": "2.0.0",
  "updatedAt": "2018-05-04T14:56:04.548Z"
}